002995000000000003000AI23951230P4ASOC. TXITXARRA 27/12000000X****
002996000000000040000AI23951230P4SEMINARIO TURISMO    000000X****
002997000000000000290AI23951230P1COMPRAS JERONIMO     000000X****
002998000000000298020AI23951230P2PREPAGO FICHA 1141   000298P****
